:020000040800F2
:1000000000500020D5950008D3950008D195000830
:10001000D1950008D1950008D19500080000000096
:10002000000000000000000000000000D395000860
:10003000D395000800000000D3950008391300088C
:10004000D1950008D1950008D1950008D1950008F8
:10005000D1950008D1950008D195000841190008F4
:10006000D1950008D1950008D1950008D1950008D8
:10007000D1950008D1950008D1950008D1950008C8
:10008000D1950008D1950008D1950008D1950008B8
:10009000D1950008D1950008D195000845190008B0
:1000A000D1950008D1950008D1950008A1680008F5
:1000B000D195000871650008F9180008D19500086D
:1000C000D1950008D1950008D1950008D195000878
:1000D000D1950008D1950008E1630008D19500088A
:1000E000D1950008D1950008D1950008D195000858
:1000F000D1950008D1950008D1950008D195000848
:10010000D1950008D1950008D1950008D195000837
:10011000D1950008D1950008D1950008D195000827
:10100000042810B523DC154A441E062101FB0423E5
:1010100003F14804A288B3F84830618812B9CA18AD
:10102000520812D06324891A61434FF420535A4363
:10103000642491FBF4F192FBF1F29A4208DCA3F5EF
:10104000A0439A42A8BF134602E0134600E0044BB7
:101050000338012898BF5B4218B210BDAC100020C5
:1010600000D8FFFFF0B50124B0FBF4F58D4201D3A9
:101070004C43F9E70026C4B1B0FBF4F504FB1500BE
:10108000B4FBF1F41EB9002D01DC002CF4D1092DC4
:10109000EFB204DD002A0CBF5725372500E03025CC
:1010A000ED1903F8015B0136E5E71C70F0BD2DE991
:1010B000F041069C06460F46002B0CBF4FF020085F
:1010C0004FF03008204610F8013B0BB9154603E0FD
:1010D000002AFBDD013AF6E7002D04DD30464146EB
:1010E000B847013DF8E714F8011B11B13046B84785
:1010F000F9E7BDE8F0810000014807F05CBF00BFE0
:10110000004800402DE9F04F074689B08846164652
:101110001D463178002900F09C80252902D0013637
:10112000384694E07478302C03D002364FF0000A31
:1011300003E0B4784FF0010A0336A4F13003092B21
:101140004FF0000919D8A4F13003DAB2092A05D802
:101150000A2404FB093916F8014BF4E7A4F16100F5
:10116000052802D8A4F1570305E0A4F1410105299F
:1011700003D8A4F137030A2BEADD642C31D010D850
:10118000582C45D006D8002C63D0252CC1D1384628
:1011900021465CE0632CBCD1384629782C1DC04721
:1011A00053E0752C0BD0782C32D0732CB1D12C1D80
:1011B0002D683846009541464A46002343E005AC79
:1011C00028680A2100222346FFF74CFF05F1040B93
:1011D0000094384641464A465346FFF768FF5D464D
:1011E00097E728682C1D002806DA2D2140428DF84B
:1011F00014100DF1150300E005AB0A210022FFF7E2
:1012000031FF05A80090414638464A4653461AE049
:101210001021B4F158035A420DF1140B05F1040CDE
:1012200028685A415B46CDF80CC0FFF71BFFCDF88C
:1012300000B0384641464A465346FFF738FFDDF8CE
:101240000CC0654665E7FFF732FF254661E7C047FA
:101250005FE709B0BDE8F08F024B196002490860F2
:10126000704700BF84000020880000200FB407B53D
:10127000064904AB0868064953F8042B0968019332
:10128000FFF740FFBDE80E4004B070478800002023
:101290008400002010B510210446154808F092F98A
:1012A0002021134808F08EF94021114808F08AF9EE
:1012B0000F2C02D10E48102114E0092C07D0102C5D
:1012C0000ED00B2C06D10A48102108F079F90848F5
:1012D000202107E00A2C09D10548202108F070F9E7
:1012E00003484021BDE8104008F06AB910BD00BFB6
:1012F00000080140094B1A6862B119684FF47A720C
:10130000B1FBF2F041B20A29A8BF0A210022C8B2FB
:101310001A6000E0FF2040B2704700BF8C00002040
:10132000022108B5034808F050F9D0F1010038BF98
:10133000002008BD0008014010B51A4C2368581C55
:101340002060FFF7EDFF18490A7820B162B92168E3
:10135000164A116008E03AB1144B21681A688B1ADA
:10136000322B84BF12490B600F4B18701148017863
:10137000012905D110488021BDE8104008F022B9AC
:1013800002782AB90C488021BDE8104008F018B94D
:101390000378022B04D1034801688B05EAD5F1E7F5
:1013A00010BD00BF740400209000002094000020B5
:1013B0008C0000200000002000080140034B10B505
:1013C0001C68196802199142FBD310BD74040020F7
:1013D00010B51A4C1A484FF4802107F0C5FC20467E
:1013E0004FF4E13107F098FD2046002107F0B7FDEA
:1013F0002046082107F0A4FD2046002107F0A9FDA2
:1014000020460C2107F0B1FD0021204607F0B3FD76
:10141000204604F5444407F0B4FD2046032102228F
:101420004FF4806307F040FD2046002101224FF475
:101430000063BDE8104007F037BD00BF0048004022
:101440001C1002400138C1B2152903D8024B53F8D1
:1014500021007047002070476C98000870B5FFF7B6
:10146000F1FF034618B91448FFF700FF1EE00820FB
:10147000984704460028F6D000680028F3D00025DD
:101480000E48294654F8042BFFF7F0FE264654F880
:10149000041B19B10A48FFF7E9FEF7E70948FFF70F
:1014A000E5FE716811B10135042DE9D10648BDE8AA
:1014B0007040FFF7DBBE00BF519700086797000838
:1014C00081970008899700088797000838B5214B55
:1014D000214893F83140FFF7C9FE2048FFF7C6FEC8
:1014E000FFF708FF98B9152C06D81D4A1357052B8E
:1014F00002D00134E4B200E004461A491A4851F817
:101500002410FFF7B3FE2046FFF7C4FEE8E70228E9
:10151000E6DD1449154851F82410FFF7A7FE2046D0
:10152000FFF79CFF0020FFF7B5FEFA20FFF746FF0C
:1015300003252046FFF7AEFEFA20FFF73FFF00200D
:10154000FFF7A8FE013DFA20FFF738FF15F0FF0571
:10155000EFD138BD480500208C970008BA970008E5
:101560005698000804A00008FB9700080F98000890
:1015700010B5044607F0C4FD4721204607F063FE7E
:10158000204607F056FE20464FF6FF7107F06AFE30
:101590002046002107F05AFE2046002107F030FEC9
:1015A0000021204607F036FE204607F03DFE20468B
:1015B000002107F01CFF00210A46204607F054FED8
:1015C0002046022107F017FE20460221BDE8104008
:1015D00007F002BE2DE9F34107F024FC4FF4407000
:1015E00008F03CF8002008F01FF842F2273008F01D
:1015F00013F8FF20002108F055F84C4D08F01EF8B4
:101600004B4B00244B4F1C6008F020F82846042167
:1016100007F0AAFB384603212246F02307F044FCDA
:10162000022213463846214607F03EFC3846022186
:1016300007F0C6FF2846404D082107F095FB2846D5
:1016400003212246402307F02FFC02228323284651
:10165000214607F029FCDFF8E8802846832107F0BF
:10166000AFFF364E012204232846214607F01CFC1A
:101670000421404607F078FB3046FFF779FF00F081
:101680002DF930211E2008F00DF81E2007F0F0FF84
:101690000121304607F0D5FE304607F0CFFD06F5B4
:1016A000405640464FF4804107F05EFB304607F05D
:1016B000A9FC2846032102224FF4204307F0F4FB43
:1016C0002846214601224FF4804307F0EDFB2246D5
:1016D000384603214FF4805307F0E6FB38464FF4B9
:1016E000805107F06FFF2246284603214FF48053B4
:1016F00007F0DAFB28464FF4805107F061FF18210C
:101700002246234600940194304607F0ADFC304653
:1017100007F0DFFC304607F0CEFC304607F0B4FCA3
:1017200002B0BDE8F041FFF753BE00BF1810024001
:101730007404002000080140000C01400008004033
:101740001C1002401FB5FFF745FF2C490020FFF792
:1017500083FD2B48FFF78AFD01A807F019FF019BC5
:1017600002990398594041402648274C0191FFF7C0
:101770007DFD26490623E1644FF6F871072284F8BF
:1017800050306186224B23490A2084F83A200122F6
:10179000196084F83100A286FFF77CFD94F83120AF
:1017A0001D491E4851F82210FFF760FD94F83100E2
:1017B000FFF754FE94F8310007F078FAFFF7B0FD18
:1017C00010B1174C00202070002005F0C5F8154B13
:1017D0001A78052AFBD90E490C683CB110480378E9
:1017E0000BB9022001E002780020A047FFF782FD3C
:1017F0000528FBDDFFF76AFEF8E700BFF9100008D7
:101800002A9800083A9800084805002010325476BB
:10181000600300208949000804A0000841980008DE
:10182000000000209800002010B50A4C00F074F968
:101830000421094807F098FA2046032100224FF4BA
:10184000007307F031FB20464FF40071BDE81040F3
:1018500007F0B8BE0008014018100240034B93F88F
:101860003B00830901D100F01FB9704748050020F3
:1018700020B105484FF4007107F0A2BE02484FF4B2
:10188000007107F09FBE00BF0008014010B504467C
:1018900099B10A4B0A48196007F0D7FD00210219D7
:1018A000074807F0BEFD0221054807F0A4FC0448E4
:1018B0000221BDE8104007F08FBC10BD9C00002045
:1018C0000008004008B507F073FE024B02481A6892
:1018D000026008BD740400207804002008B50448A4
:1018E000022107F07DFC034B00221A6008BD00BFF7
:1018F000000800409C0000200B4B10B5186878B120
:10190000804702210446094807F075FC44B10849A4
:1019100006480A680021A218BDE8104007F081BD02
:10192000BDE81040FFF7DABF9C000020000800402F
:1019300034080040014B1868704700BF7404002051
:1019400007F00FB870B5294807F07FFD84B24FF457
:10195000007007F0CDFB264B19881C80601A81B2FD
:101960002448027802BB41F6C81399422249234B0E
:1019700015D90C78022C04D8601CC0B208701A5417
:1019800070BD0A7059781A7001292ED99B788B4244
:101990002BD11B490B70012303701A4B24E00878EC
:1019A0001A5C511C195470BD174C42F21076A58F69
:1019B000E48FA1EB45057543124B64001A7895FB43
:1019C000F4F5124CADB224F81250013241F6C814AD
:1019D000D2B2A1421A7008D90949013A09788A425B
:1019E0004FF0000218BF02701A7070BD002C014049
:1019F000A6000020A8000020A1000020A2000020D6
:101A000088040020A0000020480500208A0400204F
:101A100070B51D4B86B05C6C06460D4624B90C298A
:101A2000B4BF08460C201DE0184C01940024164851
:101A3000416C01A821FA04F10834C9B206F0BEFFD6
:101A4000202CF4D10024002101A806F0B7FF02AB3E
:101A500018510434102CF6D1304603A92A4607F059
:101A60003DFE0FE0844207DA04F10051A1F61803AD
:101A70001A7832550134F5E7A84203DA00223254CD
:101A80000130F9E706B070BDAC100020D0B53A4D7A
:101A90004FF0180100FB01F000F001B801380028F8
:101AA0007FF4FCAF7047000010B5184C04212046AD
:101AB00007F05AF920464FF48041154C07F054F9CD
:101AC00002224FF400730321124807F0EDF920467B
:101AD0004FF4E13107F020FA2046082107F030FAF0
:101AE0002046002107F035FA2046082107F03DFA8C
:101AF0002046002107F033FA2046002107F03BFA88
:101B00002046BDE8104007F03CBA00BF1810024064
:101B10000038014000080140014807F037BA00BF13
:101B20000038014002484FF4805107F04BBD00BF20
:101B3000000C014002484FF4805107F041BD00BF46
:101B4000000C014070B5084C06460D46FFF7EAFF51
:101B50003146204607F0A8FA2046294607F0A4FAA5
:101B6000BDE87040FFF7E6BF0038004038B51B4CB9
:101B70000546FFF7D7FF45F04001204607F094FAED
:101B8000204607F086FA204607F09AFA204607F02A
:101B90007BFA00BF00BF00BF00BF00BF00BF00BF97
:101BA00000BF00BF00BF00BF00BF00BF00BF00BF3D
:101BB00000BF00BF00BF00BF00BF204607F069FAAA
:101BC000204607F06BFA0546204607F074FA2046D7
:101BD00007F05AFAFFF7AEFFE8B238BD0038004010
:101BE000F8B5154607460E46FFF79CFFE021104862
:101BF00007F05AFA0E48052107F056FA0024B442BD
:101C000005DA395D0A4807F04FFA0134F7E7FFF7C4
:101C100091FF0F202946FFF795FFFFF783FFD021A3
:101C2000034807F041FABDE8F840FFF783BF00BF63
:101C300000380040012808B506D10B203321FFF7FA
:101C400081FF0C2031210AE002284FF00B0001D166
:101C5000312100E03321FFF775FF0C203321BDE86F
:101C60000840FFF76FBF000038B50F4C0546FFF77F
:101C700059FF0621204607F017FA290E204607F0E3
:101C800013FAC5F30741204607F00EFAC5F3072102
:101C9000204607F009FA2046E9B207F005FABDE848
:101CA0003840FFF747BF00BF003800400138062822
:101CB00004D8064B064A195C105C01E0002001467E
:101CC00040EAC103D9B22820FFF73CBFC4980008FE
:101CD000CB98000810B50446FFF724FF21460348BF
:101CE00007F0E2F9BDE81040FFF724BF00380040DC
:101CF000002010B50146FFF725FF4FF47A70FFF77B
:101D0000C7FE0020FFF796FF1020FFF72FFF0446C5
:101D1000A020FFF7DFFFB4F19E035842584110BDE9
:101D200070B50646F0200D46FFF7D4FF0024AC4204
:101D300005DA0520FFF71AFF30550134F7E770BDCB
:101D400002484FF4805107F03DBC00BF000C014039
:101D500002484FF4805107F033BC00BF000C014033
:101D600070B5084C06460D46FFF7EAFF314620469F
:101D700007F09AF92046294607F096F9BDE8704029
:101D8000FFF7E6BF0038004038B5094C0546FFF7BD
:101D9000D7FF45F08001204607F086F90021204654
:101DA00007F082F90446FFF7D3FFE0B238BD00BF69
:101DB0000038004070B50646CDB2FFF7C1FF0948B4
:101DC000FF2107F071F90024E3B2AB4206D20548C7
:101DD000002107F069F930550134F5E7BDE870409E
:101DE000FFF7B6BF0038004010B50446FFF7A8FF64
:101DF0002146034807F058F9BDE81040FFF7A8BF97
:101E00000038004070B504460E461546FFF798FFAF
:101E100044F04001074807F047F90024AC4205DAD6
:101E2000315D044807F040F90134F7E7BDE8704040
:101E3000FFF78EBF0038004038B50C4605463B2002
:101E4000FFF7D2FF3F2029462246FFF7DBFF352070
:101E5000BDE83840FFF7C8BF012808B502D102200D
:101E60006F2109E0022805D12F21FFF779FF00201B
:101E70006F2105E002202F21FFF772FF00202F21A4
:101E8000BDE80840FFF76CBF08B53020FFF7ACFF96
:101E90004FF47A70FFF7FCFD0020FFF7DDFF0E2006
:101EA000FFF772FFB0F1C4035842584108BD00006B
:101EB00002484FF4805107F085BB00BF000C014081
:101EC00002484FF4805107F07BBB00BF000C01407B
:101ED00070B504460E461546FFF7EAFF44F0800150
:101EE000084807F0E1F80024E3B2AB4205D2315DC7
:101EF000044807F0D9F80134F6E7BDE87040FFF771
:101F0000DFBF00BF0038004070B504460E461546DE
:101F1000FFF7CEFF2146094807F0C6F80024E3B2D8
:101F2000AB4206D20548002107F0BEF83055013417
:101F3000F5E7BDE87040FFF7C3BF00BF00380040C1
:101F400070B5094C06460D46FFF7B2FF46F080011A
:101F5000204607F0A9F82046294607F0A5F8BDE875
:101F60007040FFF7ADBF00BF0038004038B5084CE7
:101F70000546FFF79DFF2946204607F095F800210A
:101F8000204607F091F80446FFF79AFFE0B238BD0B
:101F90000038004038B50C4B05465C6C24B1062176
:101FA000BDE83840FFF734BD2520FF21FFF7C8FF0B
:101FB000252029460622FFF7A7FF25202146BDE858
:101FC0003840FFF7BDBF00BFAC10002010B504467D
:101FD000012C14BF28212C210F20FFF7B1FF0E2068
:101FE000012C01D1802100E02021BDE81040FFF745
:101FF000A7BF000010B5124C4FF48051204607F0E7
:10200000DFFA6420FFF744FD20464FF4805107F0CB
:10201000D9FA6420FFF73CFD0C20C021FFF790FFA8
:1020200004210D20FFF78CFF0020FFF7CFFF1020C9
:10203000FFF79CFFB0F1A5035842584110BD00BF07
:10204000000C014001460020FFF77ABF10B504469E
:102050000320FFF78BFF04F0070300F0F80119439A
:102060000320BDE81040FFF76BBF10B50446E1B296
:102070001520FFF765FF1620210ABDE81040FFF785
:102080005FBF014608222220FFF722BF03460A460F
:1020900023201946FFF71CBF38B50D4C0546FFF746
:1020A00007FFA421204606F0FFFFE9B2204606F014
:1020B000FBFFC5F30721204606F0F6FF2046C5F3D7
:1020C000074106F0F1FFBDE83840FFF7F9BE00BF59
:1020D0000038004005208721FFF732BF014610225B
:1020E0002120FFF711BF38B5054601200C46FFF748
:1020F00027FF02204021FFF723FF20202946224608
:10210000FFF7E6FE0220BF21BDE83840FFF718BF09
:102110001021FFF7E8BF2DE9F0470E4694B00021EB
:1021200090463246032B8CBF9A464FF0040A9DF826
:102130007090074607F0DBFA0020FFF796FF0220B9
:10214000FFF744FF4FF47A70FFF7A2FCB9F1500F8C
:1021500028BF4FF050090024E0B2FFF773FF1320AF
:10216000FFF704FFFFF7B6FF0A20FFF791FC1320EB
:10217000FFF7FCFE0DF804000134502CECD13C4676
:10218000E31BB34225DA04F801AB002505EB0A0393
:102190004B450FDA00AA02EB0A0114F8012C14A82F
:1021A0008218495D12F8500C814238BF04F8013C96
:1021B0000135EBE714F8010CC8EB000500EB080251
:1021C0009542DDDA4F2D02D8FF210DF805100135BB
:1021D000F4E7012014B0BDE8F047FFF7F7BE0000B8
:1021E00002484FF4805107F0EDB900BF000C0140E8
:1021F00002484FF4805107F0E3B900BF000C0140E2
:1022000010B50446FFF7ECFF2146044806F04CFFEA
:102210000446FFF7EDFFE0B210BD00BF00380040FC
:10222000014B0F221A707047A900002070B50546B7
:10223000094C0E46FFF7D4FF05F01F01204641F080
:10224000200106F031FF31460546204606F02CFFFE
:10225000FFF7CEFFE8B270BD00380040F8B5044685
:102260000F461646FFF7BCFF04F01F01094841F076
:10227000200106F019FF0024C5B2E3B2B34205D233
:10228000395D044806F010FF0134F6E7FFF7B0FFB0
:102290002846F8BD00380040F8B507460E46FFF75F
:1022A0009FFF0948A02106F0FFFE0024C5B2E3B25B
:1022B000B34205D2395D044806F0F6FE0134F6E774
:1022C000FFF796FF2846F8BD0038004038B5094CA6
:1022D0000546FFF785FF05F01F01204606F0E4FEE6
:1022E000FF21204606F0E0FE0446FFF781FFE0B242
:1022F00038BD00BF00380040E120FFF781BFE22079
:10230000FFF77EBF70B5084C0646FFF769FF502106
:10231000204606F0C9FE31460546204606F0C4FEBA
:10232000FFF766FFE8B270BD00380040074B00F0D1
:10233000020100F00100C200187842EA011120F009
:102340002802114306201970FFF770BFA900002072
:102350000338C2B2042A9CBF074B995C074B88BF65
:102360000021187801F0030120F0060242EA410141
:1023700006201970FFF75ABFD2980008A900002064
:10238000012808B506D170210720FFF74FFF002074
:102390000E210FE0022814D170210720FFF746FF1D
:1023A0000F210020FFF742FF70210720FFF73EFFBB
:1023B00000200F21FFF73AFF8220BDE80840FFF719
:1023C00067BB00200821BDE80840FFF72FBF38B5E4
:1023D000FFF792FFFFF793FFFF20FFF711FF04467F
:1023E0000720FFF773FF05460020FFF7C9FFAC4247
:1023F00006D104F00F04B4F10E035842584138BD21
:10240000002038BD0023064A0648D21803F0030115
:10241000405C5178013348400F2B5070F3D1704726
:10242000CC000020B10000200F4B187830B10F48CD
:10243000B0F90020002AD4BF8020C0200C490D4BE9
:102440000A78C2F10301084398720B480268517878
:10245000D9729078094A18731068010A020C5873EF
:102460009973DA73704700BFC2000020B8000020E3
:10247000AA000020CC000020BC000020C8000020E2
:10248000F0B51D481D4B01781D781D4C01F10B0264
:1024900042EA0516267000238E000B20194A9F1968
:1024A00032F817703AB24FF4C8677A434FF42057A6
:1024B00092FBF7F2002A08DAC3F107074FF0010C8C
:1024C0000CFA07F738435242C0B20133627012125D
:1024D000042B04F8022FE1D1094A01315072C8B22D
:1024E000B5EB800F044B01DD187001E000221A707B
:1024F000BDE8F040FFF798BFC0000020C3000020F7
:10250000CC0000208C10002030B50022114613466C
:10251000845C2E2C04D14FF47A714B4364210BE080
:102520006CB1303C0A2529B101FB043391FBF5F174
:1025300011B904E005FB03430132072AE8D118462C
:1025400030BD0000F8B5154B1E789C785D78A71952
:1025500007EB951010F0FF0708BF01270120FFF7D8
:1025600035FD07EB072188B205EB8605FFF77DFDFA
:102570002A190A23D4B294FBF3F003FB1044084950
:1025800001EBC400FFF77DFD064A032092F85030AE
:1025900043F00801BDE8F840FFF7D2BCB1000020CD
:1025A000EA98000848050020F8B5624B1C781D46E3
:1025B0000C2C00F2B680DFE804F0073B4E4E4E4E86
:1025C0004E4E4E4E4E4E61005B4D5C4A28885C4C30
:1025D000411E8BB22B8015785A4A2801637015680A
:1025E00040F00A0143F307232170A3702878E070BC
:1025F00069782171AB78544D63712A786878A9782D
:10260000EB78A271E07121726372FFF70DFF607BBE
:102610002A78A37B82EA00016A78617382EA030068
:10262000A978E27BA07381EA0203E373012076E0DC
:1026300041490C88631E9CB20C8024B2FFF720FF36
:10264000FFF7E0FE002C3B4903DC02220A70002069
:1026500011E0002064E0FFF713FFFFF7D3FE3649D7
:1026600001340B882C701AB2002A5ADD581E80B231
:102670000880002855D104F081FA52E02F49304FEC
:102680000A78082A86BF314908780020140144F0EE
:102690000705EEB210B93E70082403E0701C3870D4
:1026A000042408202A4B0C21002201FB003793F858
:1026B0003A60114613461D18B54218DABD1895F850
:1026C000C6E80EF0020C5FFA8CFEBEF1000F0ED0D1
:1026D0004FF0800E4EFA03FCDFF864E095F8CE5818
:1026E0004CEA01019E44C9B28EF8015005E0144D38
:1026F0004FF0000CED1885F801C001330C32A342F5
:10270000D9DB0F484172FFF78FFE10490A78D2F1EA
:10271000010338BF00230B70FFF774FE0320054947
:1027200008700C480278531CD9B2042908BF002154
:102730000170F8BDB0000020B8000020C3000020E8
:10274000CC000020BC000020B1000020C40000200C
:1027500048050020AA00002010B51D4B1A783AB990
:1027600001201870FFF720FF1A48FFF7D1FC2BE07B
:102770000020187015240420FFF7F8FB00F0020178
:10278000CBB213B9013CF6D11EE013480278022AFD
:1027900003D105210170FFF7D5FE104B187898B9C9
:1027A0000F4A032092F8501041F00801FFF7C8FBD0
:1027B0000C480D4A0368934201D0591C00E00B49B4
:1027C00001600878FFF73EFC4FF4966010BD00BF33
:1027D000C1000020CC000020B0000020AA00002092
:1027E00048050020BC000020AD000020AB00002008
:1027F00038B5944A13784BB901211170FFF7D4FE14
:102800009148FFF785FC4FF4617038BD012B32D140
:1028100015240420FFF7AAFB00F00200C2B23AB967
:10282000013CF6D1874B0F21197040F2DC5400E0D7
:10283000642486480278022A03D105210170FFF73B
:1028400081FE834B187820B1824AB2F9001000292A
:1028500005DD7C4B0F241C7040F2DC545BE1022050
:10286000FFF7B4FB07208021FFF76AFB05208021DA
:10287000FFF766FB4FE10720FFF778FB00F023002E
:10288000222840F04781704C2046FFF727FC217832
:1028900001F0F002302A09D06A486FF06301027833
:1028A0000F235143037001F5C86434E1FFF7AAFD1B
:1028B000694B617B1868C2B29142EDD1A37BC0F332
:1028C00007218B42E8D1E27BC0F307408242E3D18B
:1028D0002378302B0FD161486178E37862790180E9
:1028E000E179647A43807823594363438280C181CC
:1028F00003825B4A05E1312B25D16278FF2A02D0A1
:10290000143A94B200E000244F4954488B78C480B4
:10291000FF2B02D0143B9AB200E00022CC78028157
:10292000FF2C02D0143CA0B200E00020464B4B49E3
:102930001A794881FF2A02D0143A94B200E00024A8
:102940008C81484ADDE0322B35D13F4B464C5D78D7
:1029500099786C434548DA7800FB0145444C45487A
:1029600004FB02511D795A7968434EF6602404FB3A
:1029700002054A19D97941F270704843197A4FF427
:102980001674A0F58C2504FB0150597AA0F5EB4490
:102990003C2000FB0140997A062404FB0100DB7A0D
:1029A0001118354A2D488C18572B446440F0D980B3
:1029B00061424164D5E0332B31D1234B2B4C5D7800
:1029C00098786C432A49DA7801FB0045294819793F
:1029D00050434EF6602404FB01029879AA1841F294
:1029E00070754543D9794FF41674A5F58C2504FB11
:1029F0000150197AA0F5EB443C2000FB0140597AC4
:102A0000062404FB01009B7A11181C4A13488C18F9
:102A1000532B046440F0A78061420164A3E0342B8F
:102A200006D11748FFF770FD0C4A9064154A68E01C
:102A3000352B2DD11448FFF767FD084B134AD86496
:102A40005FE000BFC1000020CC000020B0000020EB
:102A5000AA000020B8000020C80000202C1100208F
:102A60003E99000848990008002A75150051250272
:102A700080EE3600C0270900A0C5D886A0A5D08C5E
:102A8000CD000020E8980008D30000203C99000801
:102A9000362B7FF401AF354B0A229C795D79103CCF
:102AA00002FB05411D7BDC7A103D01F03F0002FB7B
:102AB00004515C7A40EA8165987A02FB040101F0D6
:102AC0000F0045EA8054187AD979103802FB0100CA
:102AD00000F01F0144EA414099785C78103902FB0C
:102AE000041101F01F0440EA04311879DB78103832
:102AF00002FB03021E4802F03F0441EA84111D4A12
:102B00000165541E14F8010F00283FF4C5AE06F00D
:102B10009BF8F7E7642418480278511CCBB2102BBD
:102B200003701CD10120FFF751FA144802789AB9BA
:102B30001349032091F8503043F00801FFF700FAE1
:102B40001048114902688A4201D0531C00E00F4B23
:102B500003601878FFF776FA074A00201070A0B2D9
:102B600038BD0B4ACDE70B4ACBE700BFCC000020B5
:102B70002C11002046990008C1000020AA00002066
:102B800048050020BC000020AD000020AB00002064
:102B9000449900083A9900082DE9F7430B2800F200
:102BA000E180DFE810F00E00E100F200EB000C0025
:102BB00013010201DF00050107010B01E1000C20F8
:102BC00005E1844FFEF78AFEFFF714FA1D20382135
:102BD000FFF7B6F997F85040032044F00801FFF7DB
:102BE000AFF906204A21FFF7ABF90B200021FFF7D0
:102BF000A7F91020A421FFF7A3F911200521FFF761
:102C00009FF912200E21FFF79BF91B205521FFF79A
:102C100097F91C200521FFF793F932203C21FFF79B
:102C20008FF935201421FFF78BF939200121FFF7A7
:102C300087F91E201021FFF783F91F200021FFF7DD
:102C40007FF901201021FFF77BF90F201021FFF7FA
:102C500077F927200221FFF773F95F4E2820022120
:102C6000FFF76EF928210F20FFF76AF93046FFF7CA
:102C700091F90120FFF7AAF90020584CFFF7F5F968
:102C80005748FFF7FEF9502503210422134600950B
:102C90002046FFF740FA2178627852480025DFF895
:102CA0007C91DFF87081E170227129466422057001
:102CB0004D4888F80050C9F8004006F018FD284635
:102CC00005F0E0FFD9F800301878FFF7BBF997F866
:102CD0003A10464BCA1C02F4FE701870444A45492B
:102CE0004548FB6C15700D700570444A23BB257870
:102CF0003078F1786840484075786178A478694008
:102D000035796940B578090241EA004085EA040155
:102D10007479614008433A49B0FBF1F401FB1400B7
:102D200010603848384A41F28831037042F6E0605A
:102D3000118003F023FF0AE01360324B324A012175
:102D4000032088F8001018701580FFF7FBFB214B5B
:102D50004FF41660B3F93220012A0CBF2B492C49DD
:102D6000FEF794FD002032E0FEF7B8FDFFF742F9D0
:102D700000280CBF4FF0FF30012028E01548C16C3F
:102D8000D1F1010038BF002021E0124A1B4BD06C6A
:102D90001D4A18601F4B012041F28831187042F61D
:102DA000E060118003F0EAFEDCE7144B18680EE0E7
:102DB00019480CE0002003F0DDFFD3E7054BB3F921
:102DC0003200411E4A4252EB010000E00820BDE8FB
:102DD000FE8300BF48050020B1000020AB000020AA
:102DE000EA980008C40000202C110020C300002035
:102DF000C0000020AA000020C1000020C800002060
:102E000040420F00B0000020B8000020F127000869
:102E100059270008C200002050990008BC0000207B
:102E2000020900F00F030A2000FB02307047000087
:102E300037B505460024285DFFF7F2FF01AB1855B2
:102E40000134042CF7D19DF806204EF66021514341
:102E50009DF80700074B9DF8052003FB00104FF479
:102E6000167101FB02039DF80420062000FB0230CE
:102E70003EBD00BF80EE360038B52749274B91F89C
:102E800031401878264A062C105C4FF0050505D114
:102E9000811E91FBF5F405FB141203E0B0FBF5F382
:102EA00005FB1302D4B2FFF7CDF81E481E4B057880
:102EB00018880DB1C24390B2FFF7D7F809235C43DD
:102EC0001A491B4D0878021905EBC200FFF7D9F823
:102ED000184908781021031905EBC300FFF7D6F84D
:102EE0000D4A0E4B92F83110062907D11878172297
:102EF000411C91FBF2F002FB101103E01878421C18
:102F000002F001011970074B1978D1F1010238BFA5
:102F100000221A7038BD00BF48050020AA04002016
:102F2000B2040020B1040020AE040020B004002050
:102F3000469A0008CA040020A64A2DE9F0471388E3
:102F4000B3F5167F12D2591C88B2C107108006D57E
:102F5000A148FFF7DDF842F23410BDE8F087042005
:102F6000FFF704F840F2DC50BDE8F087B3F5167FB8
:102F70001BD1002499490B19085D59780234FEF7DA
:102F8000DFFF1E2CF6D10120FFF720F8944A954967
:102F90000020904B1070087040F259201880FFF705
:102FA0006BFF42F21070BDE8F08740F25920834277
:102FB00040F25E2414D0A34212D0811C8B420AD16D
:102FC0008548FFF7A5F8834B1888421C1A8040F209
:102FD0000E60BDE8F087B3F5187F40F09080EFE712
:102FE0001E1B7742804D57EB0604804E2A78804B9B
:102FF0003178101F53F8205041B1002003F0ECFE4F
:1030000020B10020002703F0B9FD3770794A7A49D2
:1030100092F83100704E0628784B8F7806D11A78D6
:10302000C8783770171877700B2307E0C8781978BD
:10303000FA43C7437B18737032700A234FF0010CB8
:103040000CFA03F14FF0640E8EB20EFB06F04FF057
:103050000709664A09FB04F9962792F800A0C1F314
:103060004E0CB0FBF7F25C49C2F34E0E002205EBAA
:103070000900805CFF2838D0BAF1000F14D05D4FF2
:103080004FF00C0808FB007797F8C68808F0020894
:103090005FFA88F8B8F1000F06D097F9CE784FF0B4
:1030A00064080EFB07F707E0554F4FF4205837F838
:1030B00010703FB20EFB07F797FBF8F76744B74273
:1030C00001DB771E01E027EAE7773CB112F0FF0F42
:1030D00014BF4FF000084FF4004800E0A04600FA8B
:1030E00003F0384340EA080001E04FF6FF70071292
:1030F00001328F70C8700231072AB8D160E740F200
:103100005A22934202D0501D834213D11524042029
:10311000FEF72CFF00F00201CAB20AB9013CF6D159
:10312000FFF7AAFE2B480388591C018040F69C102B
:10313000BDE8F087B3F5177F03D040F261218B42E1
:1031400060D115240420FEF711FF00F00203D9B26C
:1031500009B9013CF6D11F4A264C1088B0F5177FFB
:1031600006D194F85030032043F02801FEF7E8FE22
:10317000B4F93210174CD1B9FFF77EFE2388B3F5AE
:10318000177F0DD1184A1078072806D840F2592326
:10319000238044F23800BDE8F08740F25E2101E070
:1031A00040F2592121804FF4AA50BDE8F0872288CF
:1031B000501C20800220FEF709FF07208021FEF727
:1031C000BFFE05208721FEF7BBFE41F2B030BDE80F
:1031D000F08700BFAC0400209A040020BC990008CE
:1031E000AA040020B1040020C9040020CB04002060
:1031F0008499000848050020E0000020AB0400206E
:103200008C10002040F25D22934203D0501D834277
:1032100040F0F1800720FEF7A9FE00F00203D9B2CA
:10322000002900F0C0807A4C2046FEF757FF207836
:1032300022467E2858D037D8162800F084801728D8
:1032400040F0B180E078FFF7EBFD0646A078FFF78D
:10325000E7FD642707FB060141F2B4534B436D4D74
:103260006C2093FBF0F26079EA64FFF7D9FD064623
:10327000A079FFF7D5FD0746E079FFF7D1FD07F00C
:103280003F0300F01F01980140EA013706F03F02BA
:1032900047EA0206607A2E65FFF7C2FD5E4C5F4981
:1032A00060435F4C0860AAE0FE281DD001D87F284B
:1032B00079D10223564A99184C78985C023344EA33
:1032C0000021FF2928BFFF210E2BCCB2F2D1917B28
:1032D0005048D27B047042EA0124631D0A21B3FBEB
:1032E000F1F202814F4C8AE09078D4784FF6FF716A
:1032F00044EA00238B4205D0C72B03D94A4AB2FBCC
:10330000F3F000E00020424B424C1A795979608179
:1033100041EA0220421D0A21B2FBF1F093F9062096
:10332000DB79E080052143EA022048430922A038E6
:1033300090FBF2F303F16400B0F5167F88BF002321
:10334000A3813A4C5BE0E078FFF76AFD0746A0787E
:10335000FFF766FD642303FB0700304D2E6803FB77
:1033600000622A602B4D201DAA64FFF761FDE47BFB
:103370002864E30701D4414229642D48FFF758FD32
:1033800004F00403DAB268641AB12A49214B4018E8
:10339000586404F00204E2B2002A2FD11D49486C9F
:1033A00043424B642AE0244B40F25D22198891424B
:1033B00015D122490A78072A0ED840F262201880D7
:1033C00080210720FEF7BCFD05208721FEF7B8FD10
:1033D00042F6F820BDE8F08740F25E2001E040F2BE
:1033E000592018800120FEF7F1FDFFF745FD4FF44D
:1033F000C870BDE8F0870020BDE8F087104C013CA4
:1034000014F8010F0028CED005F01EFCF8E700BF2D
:103410009A0400202C11002040420F00DC00002004
:103420002E9A0008269A000800879303B69B00088E
:10343000A2040020002A7515AC040020C904002055
:103440006B99000830B50D2089B0FEF7FBFD414BAC
:10345000414893F831500088FEF707FE062D14BF4F
:103460000325012509235D433C493D4C0A78501949
:1034700004EBC000FEF705FE3A4968460A78551984
:1034800004EBC50303F110050446596818680833B6
:1034900003C4AB422046F7D13349344A086849682F
:1034A00004AB03C31068516806AD03C5684620210C
:1034B000FEF7ECFD2E4A284C9178D278CD43E9B244
:1034C0002C4D20882D78D2432B4B5219040AD2B2AE
:1034D000C0B2587058711C709970DA701C71997173
:1034E000DA7100204FF4B873234A845C01301B1951
:1034F00008289BB2F8D12148190A117201781548A1
:103500000124947290F831405372062CD172144603
:103510000BD1072906D8B0F93200002814BFB22217
:10352000A22200E0B222227304E007298CBF02210C
:1035300001211173104900224A730F495018007A73
:1035400001321B18062A9BB2F7D1180A8873CB7375
:1035500009B030BD48050020AE040020B0040020B2
:10356000469A0008CA040020869A0008AE9B00080C
:10357000E0000020AB0400209A040020C9040020D1
:103580002DE9F0417B4C86B00646FEF7A7F9FEF721
:1035900031FD2046FEF7FEFC774BD86C78B12278DF
:1035A000637880EA020183EA102221706270A178B8
:1035B000E27881EA104382EA1060A370E070002490
:1035C0006E490B19085D59780234FEF7B9FC302CAE
:1035D000F6D16B48FEF760FD6120FEF733FD664AC9
:1035E00092F83100062855D1624D95F801C02C782B
:1035F0004FEA0C43EA7843EA0460AD7840EA0201FE
:1036000041EA05246FEA040C644600215D4B5E48E4
:1036100063431C18220A4925B2FBF5F805FB182361
:103620005FFA83F808F10300C5B285EA0C02D007FF
:103630002DD500221046174613468B4212DADFF8CA
:103640004CE113F80EE0AE4521D0BEF11B0F01D8BE
:10365000013705E0BEF1330F01D8013000E001323F
:103660000133EAE713D11B2D01D8072F0ADDA8F19A
:103670001908B8F1170F01D8062803DD332D05D935
:10368000072A03DC4148591CC55400E01946162995
:10369000BCDD24E04B2105220323009103A80A216D
:1036A000FEF739FD05F096F90A23B0FBF3F404FBAD
:1036B000130006AA111811F80C4C344B1C7005F0BD
:1036C00089F90A21B0FBF1F202FB110006AC2318C4
:1036D0002E4813F80C2C01789142F0D04270254B03
:1036E0002B4A597818789B7801EB0024E443148026
:1036F0004018284C0022811C2270CC18264904F066
:103700000700C0F1070308702448254C02701A4ACC
:10371000237092F83A10234B052901D8062102E0C4
:103720000C2988BF0C211970642200211E4805F065
:10373000DEFF012005F0A6FA0120FEF747FC1B4C36
:103740001B4856B10021018040F6B83003F016FA4C
:10375000FFF778FE0123237003E04FF41672028016
:10376000267042F210701349FEF790F806B0BDE8DB
:10377000F08100BFE000002048050020DA99000831
:10378000043333000D6619005FF36E3CB204002071
:10379000AE040020B1040020B0040020AB040020DF
:1037A000CA040020C90400202C110020CB040020F2
:1037B000AC040020392F000808B50B280AD8DFE830
:1037C00000F0060B1509281719091C091E0B00200B
:1037D000FFF7D6FE002008BDFEF780F8FEF70AFCD2
:1037E00000280CBF4FF0FF30012008BD0120EFE79B
:1037F000072008BD084BD86C08BD084808BD06481E
:10380000B0F93210B1F1010CDCF1000252EB0C0006
:1038100008BD0C2008BD00BF48050020A89900087D
:1038200010B5284B284A93F83A400023D9B2A14258
:1038300014D2264931F8130001B24FF4FA70414313
:103840004FF4205091FBF0F101F5FA70B0F57A7F5A
:10385000A8BF4FF47A7020EAE07001E04FF4FA70EC
:1038600050601B4952F8040F58540133082BDDD126
:10387000184B5C68A2091C6802F00C00C4F301221A
:103880009C681043220902F03004DA68204394084F
:1038900024F03F0210435C6908721869A20902F023
:1038A0000C04C0F3012298691443DB69020902F099
:1038B000300044EA0002980820F03F031A434A729D
:1038C00010BD00BF48050020E40000208C1000203F
:1038D00031010020E800002070B5244D244C2878E8
:1038E00010F001061CD1207828B105205121FEF7E7
:1038F0009DFC304609E01F491F4A0B780520D15C2A
:10390000FEF794FC1D4890F85000FEF721FDFEF7ED
:10391000F3FC164940F29C400B785A1C0A7070BDAB
:1039200007202021FEF782FC24784CB12B78144824
:10393000C3F341020A2101FB0200FEF7ADFC0DE0DA
:103940000A211048FEF7A8FC0A4B1A78511CC8B28D
:10395000132894BF18701C70FFF762FF034941F6EB
:103960008C600B785A1C0A7070BD00BFE600002006
:10397000CC0400203B010020060000204805002068
:10398000080100203101002010B500210220FEF7BF
:103990004DFC7C210020FEF749FC00210120FEF7B0
:1039A00045FC03200146FEF741FC00210420FEF700
:1039B0003DFC0020FEF7BAFC70210720FEF736FC24
:1039C0000020FEF783FC00F0DF0421460020FEF714
:1039D0002DFC002044F00201BDE81040FEF726BC9B
:1039E0002DE9F0412B4A2C4B92F800C0577896787D
:1039F000D5780CEB0700002184191970631914792C
:103A00004FF0FF081A19254BD0B283F800804FF011
:103A1000AA08120A83F80180DC71987218759877E9
:103A20004FF055080124022083F8028083F803C078
:103A30001F715E719D71DA7219735A759C75DA7710
:103A400083F820000B461549154CCA18185D013340
:103A5000072B5073F7D10021114A104B54185818F6
:103A6000E47901310729C475F6D1907BD17B83F8C5
:103A70002100107C83F8221083F82300517C907C75
:103A8000D27C83F8241083F8250083F82620BDE833
:103A9000F08100BF0100002030010020080100205B
:103AA00006000020214B10B51870FDF717FF2048C5
:103AB000204C0168204AE46C11600023132B13D8BA
:103AC00024FA03F202F003001C4AD15C4018C0B291
:103AD000D05433B1D11811F8011C814201D1481CD6
:103AE000D0540133DBB2E9E715480370FFF74CFF10
:103AF0000E4B197859B1FFF773FF102011490522B9
:103B0000FEF7ACFB4FF0FF3003F038F806E0FFF7AC
:103B100087FE102008490522FEF7A0FB0A4946F25D
:103B2000A810BDE81040FDF7B1BE00BFCC040020D6
:103B30009405002048050020010000200600002018
:103B400030010020CF9B0008D938000808B50B28A9
:103B50000AD8DFE800F0060B15091F171909090933
:103B60001C0B0020FFF79EFF002008BDFDF7B6FEEE
:103B7000FEF72DFC00280CBF4FF0FF30012008BDE0
:103B80000120EFE7062008BD034BD86C08BD4FF0BD
:103B9000FF3008BD082008BD48050020334B344ADB
:103BA00000280CBF5520AA2010B518701068010A13
:103BB00099703049020C5870000E187191F83A0053
:103BC000DA70002282421ADA2B4C34F812104FF4C9
:103BD000FA7409B261434FF4205491FBF4F101F2FD
:103BE000DC51B1F5617F05DB40F63404A142A8BF8A
:103BF000214601E04FF461715971091202E0DC21A4
:103C000059710521013299710233082ADAD1194814
:103C1000B0F93210012927D1174B1A8910B20028A8
:103C20001A4604DD114B197B41F0200018735289AC
:103C300013B2002B04DD0D49887A40F040028A72ED
:103C40000D4B99891A4608B2002804DD074B997A72
:103C500061F07F009872D28913B2002B04DD034912
:103C6000087B40F010020A7310BD00BF460100201F
:103C700040010020480500208C10002038B5054682
:103C8000FDF72CFEFEF734F8FDF71CFE9248FDF719
:103C9000EBFF01204221FDF755FF02200021FDF737
:103CA00051FF03201421FDF74DFF04200021FDF7F3
:103CB00049FF07200021FDF745FF08200021FDF7FF
:103CC00041FF09200021FDF73DFF0A200021FDF7FB
:103CD00039FF0B200121FDF735FF21210C20FDF7D5
:103CE00031FF0D200521FDF72DFF0E200021FDF7EE
:103CF00029FF0F205021FDF725FF10209E21FDF701
:103D000021FF11204B21FDF71DFF12200021FDF79F
:103D100019FF13200221FDF715FF14201621FDF7CE
:103D200011FF15202B21FDF70DFF16201221FDF7A5
:103D300009FF00211720FDF705FF18206221FDF77C
:103D400001FF19208021FDF7FDFE1A208021FDF7DB
:103D5000F9FE1B200021FDF7F5FE1C200A21FDF7CE
:103D6000F1FE1D203221FDF7EDFE1E20C321FDF7DF
:103D7000E9FE1F200F21FDF7E5FE20201321FDF7AE
:103D8000E1FE2120C321FDF7DDFE00212220FDF709
:103D9000D9FE24201321FDF7D5FE25200921FDF7AA
:103DA000D1FE26203B21FDF7CDFE27200021FDF787
:103DB000C9FE28201721FDF7C5FE29204721FDF760
:103DC000C1FE2A208021FDF7BDFE2B200321FDF737
:103DD000B9FE2C200121FDF7B5FE2D204521FDF770
:103DE000B1FE18212E20FDF7ADFE2F200021FDF79A
:103DF000A9FE30200121FDF7A5FE0F213120FDF79E
:103E0000A1FEB020FDF766FF02200121FDF79AFE1A
:103E1000FDF790FD0446FDF755FDFDF78BFD001BFA
:103E2000B0F5FA7F04D20220FDF7A0FEC307F4D458
:103E3000FDF780FD011BB1F5FA7FBFF423AF22200F
:103E4000FDF794FE00F01002D3B2002B7FF41AAFFE
:103E5000224C0120FDF7EEFE94F85000FDF726FFFE
:103E6000A020FDF737FFE36C7BB9204640F64431D4
:103E700004F08CFD80210446194804F087FD19499F
:103E80000019B0FBF1F201FB120317481649036059
:103E90000A68164B02F00F00C2F3031218700021DB
:103EA0001348092A134B88BF092201701A7012495E
:103EB00015B90A48C26C3AB940F6C41340F6A66078
:103EC0000B8002F05BFE00E00D800C4946F2A8106A
:103ED000BDE83840FDF7DABC2AC575544805002016
:103EE000AC1000203F420F0040010020450100209F
:103EF0003C010020440100205C010020013F00083B
:103F000010B5194C208878B10120FFF747FE1748FB
:103F100001221521FDF764FE2288501E80B2208008
:103F2000F8B902F02BFE1CE0FFF738FE104C114AE6
:103F30002378107803EB00110F4B10485A5C01787E
:103F40000A48531ADAB21521FDF74AFE2278501CAE
:103F500000F00F01217021B9094B93F85000FDF7D3
:103F6000A5FE40F2DC5010BD5C010020460100209F
:103F70003C01002045010020F49B00084401002082
:103F80004805002008B50B281FD8DFE800F0080A14
:103F90001B140606201E261E230A082008BD00202A
:103FA00011E0FDF79BFCFDF7A3FE00280CBF4FF0CE
:103FB000FF30012008BD0A48C16CD1F1010038BFB3
:103FC000002008BD0120FFF759FE002008BD054B69
:103FD000186808BD4FF0FF3008BD034808BD00BF9A
:103FE0004805002040010020D49B000810B504467D
:103FF0000120FDF731FF17200C21FDF7B1FE18203D
:104000000821FDF7ADFE0620FF21FDF7A9FE0720E0
:104010000421FDF7A5FE08200521FDF7A1FE3E20A5
:10402000002C0CBFFE215021FDF79AFE0B20082129
:10403000FDF796FE444B0C2093F83210FDF790FEEE
:104040000D205C21FDF78CFE0E205821FDF788FE27
:104050000F209D21FDF784FE1020AA21FDF780FE90
:1040600011201021FDF77CFE12209321FDF778FE30
:1040700013202321FDF774FE14207A21FDF770FE32
:1040800015204121FDF76CFE19201621FDF768FE71
:104090001A206C21FDF764FE1B204321FDF760FE12
:1040A0001C204021FDF75CFE1D209121FDF758FEEC
:1040B00021205621FDF754FE22201021FDF750FE4D
:1040C0002320A921FDF74CFE24200A21FDF748FEFC
:1040D00025200021FDF744FE26201121FDF740FE9A
:1040E00029205921FDF73CFE2C208821FDF738FEC0
:1040F0002D203121FDF734FE2E200B21FDF730FE5F
:1041000003200721FDF72CFE00210920FDF728FEE2
:104110003620FDF769FE3B20FDF766FE3A20FDF7ED
:1041200063FE0A4801783E20012901D1FE2100E00A
:104130005021FDF715FE0A200021FDF711FE332066
:10414000BDE81040FDF750BE4805002000000020EB
:1041500000230A4A995C4840082110F0800F4FEA7A
:10416000400018BF80F007004A1E12F0FF01C0B2E5
:10417000F3D101330E2BECD1704700BF9C0100201E
:104180002C4870B52C4B01882C4D0C0A0E2259700E
:104190002B491A702A689C700C78100ADA70187112
:1041A00054B90F255D71274B0C7893F83A50224B88
:1041B000A20003F1080022E0012C01D1F025F1E773
:1041C0000025EFE7204E36F8121041F64C5609B2A2
:1041D00071434FF4C83691FBF6F101F6CA0140F283
:1041E0004556B1420EDD40F64E46B142A8BF3146BB
:1041F00099710912D97102330132834209D0AA425E
:1042000003DADFE740F24651F2E7C921997108214C
:10421000F0E70E4801340078FFF79AFFE4B2064950
:10422000012C8873064B01D81C7070BD00221A70D7
:1042300070BD00BF660100209C01002060010020CD
:104240009B010020480500208C1000209A010020CE
:1042500038B51E4C1E4D237813F0010F16D13620B1
:10426000FDF7C2FD28783222B0FBF2F102FB110308
:10427000184A0A20D15CFDF773FD3320FDF7B4FD29
:104280002078411C217040F29C4038BD3B20FDF756
:10429000ABFD0F211048FDF7CFFD3520FDF7A4FD44
:1042A0002868AA22424347F27363B2FBF3F103FB8F
:1042B00011202860FFF764FF3D20FDF795FD22786F
:1042C00041F68C60531C237038BD00BF6401002090
:1042D00060010020680100209C010020F8B5362014
:1042E000FDF782FD0A200021FDF73AFD1C4A1D4C16
:1042F00015880E232E0A26711B4E2370377805234E
:104300007B430320194A60700121D8B2A170E57087
:10431000115C15186071A8786B78EA78A171297919
:10432000207200259320E3716272A172E5722573F9
:104330006573FFF70DFF0137FFB2092F94BF377088
:104340003570A0733B20FDF74FFD0F210548FDF7A9
:1043500073FD3520FDF748FD44F25060F8BD00BF05
:10436000660100209C0100206501002068010020FA
:10437000F8B50646FDF7B2FA344B0525D86C344A39
:1043800081048C0CB4FBF5F705FB1743314914800D
:10439000314CD8B20B700023821D5F1D9D18FBB2FB
:1043A000FA2B04F8015FF7D12C496B238F1E11F80B
:1043B00001E9082201200024802515EA0E0F18BF0C
:1043C000044340006D08013AC0B2F6D108228020B3
:1043D00023F07F055B002042EDB2DBB203D0002D5D
:1043E0000CBF802500250DB183F0C1034008013AC0
:1043F000EED1B942DBD10821012480251D421CBF2A
:104400002243D2B264006D080139E4B2F6D1144BF4
:104410001A70FDF739FD56B10120FFF7E7FD4FF0A7
:10442000FF3002F0ABFB46F2A8100E490AE030461E
:10443000FFF7DCFD0C4A02201060FFF7A1FE0B49DC
:1044400046F2A810BDE8F840FDF720BA4805002064
:10445000660100205E010020670100206701002046
:104460009A010020DD42000860010020514200084E
:1044700008B50B280AD8DFE800F0060B1509222240
:1044800017091D091F0B0020FFF772FF002008BD50
:10449000FDF724FAFDF7F8FC00280CBF4FF0FF30C1
:1044A000012008BD0120EFE7064BD86C40B1800425
:1044B000800C08BD044808BD4FF0FF3008BD08203F
:1044C00008BD00BF48050020F49C0008264830B510
:1044D000264A0188112313700C0A002301259470C9
:1044E0005170137155719372D37213745374204ABF
:1044F00092F83A40D8B2A04216D21E4941F64C5228
:1045000031F8135029B251434FF4C83591FBF5F1FE
:1045100001F6CA0140F24552914208DD40F64E458F
:10452000A942A8BF294604E040F6CA0101E040F2D2
:10453000465103280D4A04D8D5184008A9710A30FD
:1045400004E0D0181D1F01726810103003F001053F
:10455000AD00091201FA05F1155C01332943082B5E
:104560001154C7D130BD00BFB0010020E6010020CA
:10457000480500208C10002010B504460120FDF7EE
:104580006BFC17200C21FDF7EBFB18200821FDF731
:10459000E7FB06201921FDF7E3FB07200521FDF7C6
:1045A000DFFB08200521FDF7DBFB3E20002C0CBFC4
:1045B000FE215021FDF7D4FB0B200821FDF7D0FB95
:1045C000464B0C2093F83210FDF7CAFB0D205C21FE
:1045D000FDF7C6FB0E207621FDF7C2FB0F20272139
:1045E000FDF7BEFB1020AA21FDF7BAFB11203921EF
:1045F000FDF7B6FB12201121FDF7B2FB132023219A
:10460000FDF7AEFB14207A21FDF7AAFB152042210D
:10461000FDF7A6FB19201621FDF7A2FB1A206C213D
:10462000FDF79EFB1B200321FDF79AFB1C20402178
:10463000FDF796FB1D209121FDF792FB21205621CD
:10464000FDF78EFB22201021FDF78AFB2320A921F4
:10465000FDF786FB24200A21FDF782FB252000219F
:10466000FDF77EFB26201121FDF77AFB2920592139
:10467000FDF776FB2C208821FDF772FB2D203121E0
:10468000FDF76EFB2E200B21FDF76AFB03200721AF
:10469000FDF766FB14B91248017800E003210920F8
:1046A000FDF75EFB3620FDF79FFB3B20FDF79CFBF3
:1046B0003A20FDF799FB0B493E200A78012A01D1E7
:1046C000FE2100E05021FDF74BFB0A200021FDF701
:1046D00047FB3320BDE81040FDF786BB48050020AE
:1046E000B00100200000002070B53620FDF77CFBF3
:1046F0000A200021FDF734FB1C491D4B0D881D4984
:1047000003201122587008781A70052242432E0A9D
:10471000DD70194DD2B21E715A71AE5CAA1855786F
:104720000124DD7195789C701D72D57812799E7187
:104730009A720022DA721A735A739A73DA731A74BD
:104740005D725C740319D8B2092894BF08700A70AE
:104750003B20FDF749FB12210548FDF76DFB352095
:10476000FDF742FB44F2506070BD00BFB001002075
:10477000E6010020B2010020B301002030B5514B0A
:1047800089B01878504C18BB3620FDF72DFB2378E4
:1047900013F0030103D0032904D1022000E001201B
:1047A000FDF75AFB484A2F231078B0FBF3F103FBC7
:1047B00011024649D3B20A20C95CFDF7D1FA332071
:1047C000FDF712FB3F4A0120107040F29C4076E05A
:1047D000257805F00305012D0CD0032D59D03B2081
:1047E000FDF702FB3A482178C1701221FDF724FB46
:1047F000352052E03B20FDF7F7FA227834481221A9
:10480000C270FDF719FB3520FDF7EEFAFB20FDF72E
:10481000BBFA304B14280146187042D101A8FDF7AD
:10482000C9FA9DF8040011283BD12B499DF80500D9
:104830000B88DAB2904234D19DF80610B1EB132FF9
:104840002FD19DF80730342043436422234CB3FB1F
:10485000F2F12846218004F0F7F99DF80830842011
:1048600043434FF47A72B3FBF2F10220618004F00B
:10487000EBF91B4B9DF809001A68312860F34F02D1
:104880001A60196894BF41F001016FF300011960CB
:1048900007E03A20FDF7A8FA3420FDF7A5FAFFF764
:1048A00015FE094803785A1CD1B2BB294FF000020B
:1048B00094BF017002700348027041F68C6009B029
:1048C00030BD00BFE5010020AE010020B301002093
:1048D000E6010020AD010020B00100202C110020D5
:1048E0000805002038B50446FCF7F8FF204B214AA4
:1048F000D86C81048B0C0520B3FBF0F1138000FB16
:1049000011331D4A99B211700023D8B22F280AD052
:104910000BD823225A43EB2092FBF0F500FB152223
:104920005018C2B202E0012200E0002213481A54DB
:104930000133322BE9D1FDF7A7FA54B10120FFF77B
:104940001BFE4FF0FF3002F019F946F2A8100C4997
:104950000AE02046FFF710FEFFF7B8FD022004F042
:1049600091F9084946F2A810BDE83840FCF78EBF1F
:1049700048050020B0010020AC010020B301002058
:10498000E94600087D47000808B50B280AD8DFE88B
:1049900000F0061A0B0924240D091009121A002030
:1049A000FFF7A0FF002008BD0120F9E70C4BD86CF1
:1049B00008BD0C4808BD0A48B0F934104A1E5342DD
:1049C00053EB020008BDFCF789FFFDF75DFA0028F4
:1049D0000CBF4FF0FF30012008BD082008BD00BF0C
:1049E000480500201C9D0008884B73B5DA6C06460C
:1049F000DAB9874B10460821864C43F300052C405A
:104A00006FEAC0756C40013984EA5303C0F3470074
:104A1000F2D10132D2B2052AECD10920B3FBF0F178
:104A200000FB11337C4C236006E00920B2FBF0F15F
:104A300000FB1124784D2C60774DFCF74FFF2A685E
:104A400005205043754C764B255C21184C788878AE
:104A50001D70CD7809795C709870DD701971714B9B
:104A6000714C985C254605F80109123415F8011FB0
:104A7000CB1CA5426B70F9D16C4C002525706C489D
:104A8000674C6C4B05702178607819705870A1786C
:104A9000E0789970D870217963481971017859715B
:104AA000654911F8220001EB8202987151789078E3
:104AB000D278D97118725A72FDF7B2FB0121022027
:104AC000FDF7B4FB01202946FDF7B0FB05221020BD
:104AD0002146FDF7C3FB05220A202146FDF7BEFB58
:104AE0000A211120FDF7A2FB50210520FDF79EFBB6
:104AF0000E212846FDF79AFB03200146FDF796FBA1
:104B00002846FDF713FC414B93F85000FDF720FCBD
:104B100070210720FDF78AFB5320FDF7F3FB0720E8
:104B2000FDF7D4FB030657D502AC042243492846BF
:104B300044F8045DFDF792FB042201204049FDF793
:104B40008DFB042202203F49FDF788FB042203204D
:104B50003D49FDF783FB04203C490246FDF77EFBFF
:104B6000042205203A49FDF779FB0422062021465C
:104B7000FDF774FB042207202146FDF76FFB04229A
:104B800008202146FDF76AFB042209202146FDF793
:104B900065FB04220A202146FDF760FB2146042222
:104BA0000B20FDF75BFB2B4904220C20FDF756FB85
:104BB000294904220D20FDF751FB28490B220E2024
:104BC000FDF74CFB042026490246FDF747FB042075
:104BD0001E490246FDF742FB5320FDF793FB214996
:104BE0002EB90A48C26C12B1643A082A07D84FF4A9
:104BF00048734FF4FA500B6001F0C0FF00E00E6004
:104C00004FF47A701849FCF741FE7CBD480500203E
:104C1000A9EC49760300208040020020549D000842
:104C200045020020CF9D000800020020FF01002067
:104C30004402002014020020819D0008AA9D000863
:104C4000409D0008AF9D0008459D0008B49D0008E8
:104C5000B99D00084A9D00084F9D0008BE9D0008B0
:104C6000CA9D0008540200206D4C000838B5594A0E
:104C70001378581CC1B20129117002D1FDF73CFB19
:104C8000A4E002290ED1544B1968002940F39E80FC
:104C9000102052490522FDF7E1FA05205021FDF7C9
:104CA000C5FA93E003290BD14B4A1068002840F362
:104CB0008D800138106008B901F060FF484882E03B
:104CC000042904D1444B19680029D7DC7EE005296A
:104CD00005D1444890F85000FDF73AFB76E00629EC
:104CE00014D1414C052210204049FDF7B7FA217834
:104CF0003F4A0520515CFDF799FA2078431CD9B250
:104D00001329217062D9002222705FE0072955D152
:104D1000344C384A94F83A400023D8B2A04202D327
:104D20004FF4FA7119E0344D35F813104FF4E17572
:104D300009B269434FF4205591FBF5F1022814BFE5
:104D400001F5FA71C1F5FA71002901DA002104E0D8
:104D5000B1F57A7FC8BF4FF47A71516052F8040FF1
:104D6000264958540133082BD7D1254B5C68A2093A
:104D70001C6802F00C00C4F301229C681043220955
:104D800002F03004DA682043940824F03F02104314
:104D90005C6908721869A20902F00C04C0F30122D0
:104DA00098691443DB69020902F0300044EA00020A
:104DB000980820F03F031A434A7207E0082905D9F2
:104DC00000230E4813700A21FDF766FA4FF47A703B
:104DD00038BD00BFFF01002054020020A59D00083F
:104DE0001402002048050020440200204502002053
:104DF000000200201C0200208C1000204A0200202B
:104E00002002002008B50B280AD8DFE800F0060BC6
:104E100015091D1D170909091A0B0020FFF7E4FDEC
:104E2000002008BDFCF75AFDFDF7D1FA00280CBFA1
:104E30004FF0FF30012008BD0120EFE7034BD86C95
:104E400008BD4FF0FF3008BD062008BD4805002012
:104E50002DE9FF410746FCF741FDBF4B01A80C219E
:104E60000093FCF7D5FD002401A9095D68460134D3
:104E700003F0A4FD0C2CF7D1B848C26C0AB9052484
:104E80000CE00025B54E6846F36C23FA05F30835AF
:104E9000D9B203F093FD202DF4D1F0E7002168464C
:104EA00003F08CFD013CF9D104A951F8100DAC4A76
:104EB000E1B2A0546846013403F080FD052CF3D123
:104EC000042600216846751E03F078FD15F0FF06E4
:104ED000F7D1DDF800C031466046A24B4924434378
:104EE000A1481818020AB2FBF4F804FB18255FFA6F
:104EF00085F808F10206F4B284EA0C03DA072CD52F
:104F000000221546164613468B4212DADFF85CE2A1
:104F100013F80EE0A64520D0BEF11A0F01D80136D5
:104F200005E0BEF1320F01D8013500E00132013356
:104F3000EAE712D11A2C01D8072E09DDA8F11901D0
:104F4000172901D8072D03DD322C05D9072A03DCE8
:104F5000864A591CD45400E019461329BDDD804A05
:104F6000834892F801E092F800C096780EEB0C05A9
:104F7000AB19804CD5780021017021705819147933
:104F80007D4B4FF0FF08021983F800804FF0AA080C
:104F9000D0B283F80180120A5E71DC714FF05508BF
:104FA0000124022683F8028083F803C083F804E01A
:104FB0009D719872DA72197318755A759C75987785
:104FC000DA7783F820600B466B496848CD181A5C85
:104FD0000133072B6A73F7D10025644A664E5019D6
:104FE0007119C3790135072DCB75F6D1917BD07B33
:104FF000137C86F8211086F82200517C907CD27CAC
:1050000086F823305D4B86F8262086F8241086F833
:10501000250000261E70FDF703F901210220FDF78F
:1050200005F901203146FDF701F9052210204C4910
:10503000FDF714F905220A204949FDF70FF90A2165
:105040001120FDF7F3F851210520FDF7EFF80E21AF
:105050003046FDF7EBF803200146FDF7E7F8304650
:10506000FDF764F93D4991F85000FDF771F97021A1
:105070002846FDF7DBF85320FDF744F92846FDF7F5
:1050800025F9030657D504223D4904AC304644F8BF
:10509000106DFDF7E3F8042201203A49FDF7DEF830
:1050A000042202203849FDF7D9F8042203203749A9
:1050B000FDF7D4F8042036490246FDF7CFF8042264
:1050C00005203449FDF7CAF8042206206946FDF799
:1050D000C5F8042269462846FDF7C0F804220820D6
:1050E0006946FDF7BBF8042209206946FDF7B6F8CA
:1050F00004220A206946FDF7B1F804220B20694614
:10510000FDF7ACF80C2024490422FDF7A7F8234949
:1051100004220D20FDF7A2F821490B220E20FDF7F5
:105120009DF804201F490246FDF798F8042018490D
:105130000246FDF793F85320FDF7E4F81A4817B933
:10514000064AD36C93BB4FF4487101604FF4FA5098
:1051500001F014FD2BE000BFA9EC497648050020C2
:10516000BA0200200D6619005FF36E3C5902002060
:1051700058020020B90200206D020020B802002071
:10518000AA9D0008D89D0008AF9D0008DD9D00087D
:10519000B49D0008B99D0008E29D0008E79D000845
:1051A000BE9D0008CA9D0008CC02002007604FF495
:1051B0007A700249FCF76AFBBDE8FF81C151000823
:1051C00038B55F4A1378581CC1B20129117002D159
:1051D000FDF792F8B0E002290ED15A490A68002A78
:1051E00040F3AA80102058490522FDF737F8052022
:1051F0005121FDF71BF89FE0032917D151490A6897
:10520000002A40F39980501E086008B901F0B6FCEE
:105210004E4C4F4B20780A2101FB0030FDF73CF843
:1052200021784A1CD0B22070032821E0042904D13F
:1052300044480368002BCBDC7EE0052905D1454AB4
:1052400092F85000FDF784F876E0062914D1424C1C
:10525000052210204149FDF701F82178404A052038
:10526000515CFCF7E3FF2078431CD9B2217013296D
:1052700062D9002323705FE0072955D1354C394AA4
:1052800094F83A400023D8B2A04202D34FF4FA7106
:1052900019E0354D35F813104FF4E17509B2694343
:1052A0004FF4205591FBF5F1022814BF01F5FA7176
:1052B000C1F5FA71002901DA002104E0B1F57A7F25
:1052C000C8BF4FF47A71516052F8040F27495854FF
:1052D0000133082BD7D1264B5C68A2091C6802F069
:1052E0000C00C4F301229C681043220902F0300430
:1052F000DA682043940824F03F0210435C69087286
:105300001869A20902F00C04C0F301229869144341
:10531000DB69020902F0300044EA0002980820F03C
:105320003F031A434A7207E0082905D900230F48B2
:105330000A211370FCF7B0FF4FF47A7038BD00BF3C
:1053400058020020CC020020EC9D0008B80200208A
:105350006D02002048050020B9020020BA0200209A
:1053600059020020940200208C100020BF0200206F
:105370009802002008B50B280AD8DFE800F0060BD9
:1053800015091D1D170909091A0B0020FFF760FDFB
:10539000002008BDFCF7A2FAFDF719F800280CBFA1
:1053A0004FF0FF30012008BD0120EFE7034BD86C20
:1053B00008BD4FF0FF3008BD062008BD480500209D
:1053C0001FB5FCF78BFA4FF0FF3001F0D7FB6B48AD
:1053D0006B4B002400900C2101A81C70FCF718FBFB
:1053E00001A9095D6846013403F0E8FA0C2CF7D1F5
:1053F000644AD36C0BB904240CE000246148C16CEE
:10540000684621FA04F10834C9B203F0D7FA202C17
:10541000F4D1F0E70021684603F0D0FA621E12F0E2
:10542000FF04F7D10098584B010A020C187059700C
:105430009A70000EEE21C222D87019715A71FCF7D1
:10544000EFFE524B1919185D49780234FCF7EEFE55
:10545000282CF6D10120FCF793FF0020FCF766FF13
:1054600005220A204A49FCF7F9FE05220B2049498A
:10547000FCF7F4FE052246491020FCF7EFFE7320EE
:10548000FCF740FF07211D20FCF7D0FE3F211C2028
:10549000FCF7CCFE5320FCF735FF0720FCF716FF86
:1054A000030652D5002004223B4904AC44F8100DF9
:1054B000FCF7D4FE042201203849FCF7CFFE042279
:1054C00002203749FCF7CAFE042203203549FCF7C5
:1054D000C5FE042034490246FCF7C0FE0422052024
:1054E0003249FCF7BBFE042206206946FCF7B6FEF3
:1054F000042207206946FCF7B1FE04220820694611
:10550000FCF7ACFE042209206946FCF7A7FE0A203E
:1055100069460422FCF7A2FE0B2069460422FCF730
:105520009DFE234904220C20FCF798FE2149042209
:105530000D20FCF793FE04201F490246FCF78EFE67
:10554000042019490246FCF789FE5320FCF7DAFED5
:10555000FCF7D2FE0E210720FCF768FE0E2100208A
:10556000FCF764FE0120FCF7B1FE144A0020107025
:1055700013494CF25030FCF789F91FBD2F4AC5B2D0
:10558000D102002048050020D2020020129E00080F
:10559000F19D0008F29D0008AA9D0008F79D0008F3
:1055A000AF9D0008FC9D0008B49D0008B99D00084F
:1055B000019E0008069E0008CA9D0008D002002037
:1055C000C556000808B51720FCF780FE02480721E1
:1055D000BDE80840FCF760BED8020020A5200023EB
:1055E000084A995C0822484010F0800F4FEA4000BA
:1055F00018BF80F00100013AF6D10133062BEFD13C
:10560000C0B27047D80200202C4AF8B51788322360
:1056100038B258434FF4205190FBF1F450883234A3
:1056200001B24FF4A06365B291FBF3F425EAE5768D
:10563000E5B22806F7B203D56642F5B2012400E0D0
:1056400000249188D28868B21F2315B25D438EB2C0
:105650004FF4205195FBF1F2D5B20728A8BF0720DF
:105660002906C0B203D55342DDB2012100E000217A
:105670006AB2124D1F2AA8BF1F222B89D2B29DB237
:105680000F4B1F700CB140F02000587030B2002852
:1056900003DD587840F0400058702BB2002B084BC7
:1056A00003DD587860F07F00587009B142F02002A5
:1056B0005A71FFF793FF02498871F8BD8C100020E2
:1056C000D802002038B57C4C0720237803F07F01F6
:1056D000062900F39880FCF7F9FD00F02005EDB2F3
:1056E00020784DB300F07F00C31D23707349002460
:1056F00020460C7001F042FA714905220A20FCF79D
:10570000ADFD704905220B20FCF7A8FD05226C4970
:105710001020FCF7A3FDFCF7EFFDFFF775FF072056
:10572000FCF7D4FD01460720FCF780FD2046FCF77E
:10573000CDFD0146204696E006281BD800283CD126
:10574000614C94F85000FCF703FE5D4905220A20E5
:10575000FCF784FD5B4905220B20FCF77FFD5849CF
:1057600005221020FCF77AFD05200821FCF75EFDDC
:105770002B4605E080280ED026D3862824D81CE0AE
:105780004F4A524C995C19550133062BF8D1FFF75B
:1057900025FFA07118E04E4905220A20FCF75EFDA6
:1057A0004C4905220B20FCF759FD494910200522E0
:1057B000FCF754FD0520082104E0474A00F07F0172
:1057C000515C0520FCF732FDFCF796FD0720FCF745
:1057D0007DFD01460720FCF729FD0020FCF776FD42
:1057E00001460020FCF722FDFFF7ECFE324803786B
:1057F000591CCAB2872A01D1002202E0072A08BF39
:105800008022027055E0FCF761FD2C4A147863B2E7
:10581000002B04DD00F02001CAB20AB12AE01CB955
:1058200000F02000C3B22BBB2348244B0278002198
:105830001970511CCBB20D2BC8BF07230370082170
:105840000520FCF7F3FCFCF757FDFFF7DDFE072012
:10585000FCF73CFD01460720FCF7E8FC0020FCF7C4
:1058600035FD01460020FCF7E1FCFFF7ABFE43F2FB
:10587000B06038BD0134FFF7C7FEE4B20F49622CB7
:105880000C7006D11048FF2290F850000A70FCF707
:105890005FFD0720FCF71AFD01460720FCF7C6FC58
:1058A0000020FCF713FD01460020FCF7BFFCFFF7CA
:1058B00089FE44F6206038BDD0020020D1020020CD
:1058C000D2020020D302002048050020D802002088
:1058D000F19D0008F29D00080B9E000808B50B28FA
:1058E00021D8DFE800F0120812062222151B202022
:1058F0001808012008BDFBF7F1FFFCF768FD002840
:105900000CBF4FF0FF30012008BDFFF759FD0AE042
:10591000074BD86C08BD4FF0FF3008BD044890F825
:105920005000FCF715FD002008BD052008BD00BF94
:105930004805002000231A460449585C01330F2B08
:105940000244F9D15042C873704700BFF1020020F1
:1059500038B5FBF7C3FFFCF7CBF9FBF7B3FF6F4894
:10596000FCF782F901206321FCF7ECF803200F21FA
:10597000FCF7E8F80D200521FCF7E4F80E200421DF
:10598000FCF7E0F815202B21FCF7DCF81820622149
:10599000FCF7D8F819208021FCF7D4F81C200A2144
:1059A000FCF7D0F81F200721FCF7CCF817212020A6
:1059B000FCF7C8F829204721FCF7C4F8A020FCF721
:1059C00089F901210220FCF7BDF80220FCF7CEF88E
:1059D000FBF7B0FF0446FBF775FFFBF7ABFF001BBF
:1059E000B0F5FA7F04D20220FCF7C0F80028F4D109
:1059F000FBF7A0FF011BB1F5FA7FACD22220FCF728
:105A0000B5F805462420FCF7B1F805F01002D1B234
:105A10000029A0D10F20FCF795F802200146FCF7E1
:105A200091F8FBF787FF0446FBF74CFFFBF782FF7B
:105A3000031BB3F5FA7F04D20220FCF797F8002885
:105A4000F4D1FBF777FF001BB0F5FA7F83D2252056
:105A5000FCF78CF800F00801CDB2002D7FF47BAF8D
:105A60000F20A021FCF76EF802200146FCF76AF82F
:105A7000FBF760FF0446FBF725FFFBF75BFF021B0C
:105A8000B2F5FA7F04D20220FCF770F80028F4D1B6
:105A9000FBF750FF031BB3F5FA7FBFF45CAF204D5B
:105AA0002520FCF763F80120FCF7C4F895F85000B6
:105AB000FCF7FCF8A020FCF70DF90020014602F0ED
:105AC0007DFF18490C2408600020014602F076FF93
:105AD000B0FBF4F202FB1400134B144C195C4FF0B2
:105AE000FF30217001F04AF8114A12480024147066
:105AF000047021466422104803F0F9FD204603F0AB
:105B0000C1F8B5F9323013B941F2FD6169860B492C
:105B100042F21070BDE83840FBF7B8BE4110205586
:105B200048050020E80200203A9E0008E402002018
:105B3000E3020020E20200202C110020415B00085B
:105B400070B59A4C2378062B20D00BD8022B1AD094
:105B500004D8C3B1012B40F0DF815FE0042B5DD19D
:105B6000012514E0802B44D005D8072B7ED00C2BC8
:105B700000F2D2819CE0842B3BD0862B39D0822B43
:105B800040F0CA8135E05C1CE5B200E00925884C94
:105B9000884A2570884D10682978030E020A6170C2
:105BA0006071010C0820A370E1702271A071E423E0
:105BB000EA219E225020E3712172DB2304216272CC
:105BC000A07226227920E37221736273A073FFF71B
:105BD000B1FEA020FCF77EF8204610212A78FBF7C2
:105BE000FFFF724B40F6B830197861F07F021A70EF
:105BF00070BD14240020FBF7B9FFC20701D5013C9A
:105C0000F8D10220FCF716F8C020FCF763F86749CA
:105C10000A7802F07F00431C0B700BE00120FCF7B8
:105C200009F80020FBF7A2FF10F0010F5F4D04D030
:105C30000021297041F2941070BD5D4C1021204666
:105C4000FCF76EF82878411CCAB2042A2A7040F08A
:105C50006581E378A0781904627941EA00632079CC
:105C6000134343EA0020FBF7FFFF57E10120FBF756
:105C7000E1FF0020FBF77AFF10F0010613D14C4D35
:105C800010212846FCF74CF8697809290BD1082027
:105C900020700F211F20FBF755FF304600F06EFFEC
:105CA00046F6605070BD0623237043F6982070BD01
:105CB000424A434C1078002840F0CF804149D02020
:105CC000082B087003D194F85000FBF7EFFF384C15
:105CD00000211022204603F00AFD394B3A495A8E22
:105CE00008882346824203D13848007864280DD1C1
:105CF0000A80402042F307249A70822218705C7058
:105D0000DA70324B1978481C187012E02022227089
:105D10002F4C4FF42052A1880BB2D80190FBF2F423
:105D2000803403D4FF2CA8BFFF2400E000242049C6
:105D30008C70274C4FF42051E28813B2D80190FBAD
:105D4000F1F3803303D4FF2BA8BFFF2300E000232F
:105D50006188174AD8430CB2E30110714FF4205008
:105D600093FBF0F1803103D4FF29A8BFFF2100E0AD
:105D70000021CC439471164A4FF42054138818B272
:105D8000C10191FBF4F2803203D4FF2AA8BFFF22A5
:105D900000E000220D4C064B21781A72632919D8B5
:105DA0000E2201315A72217030E000BFE302002060
:105DB000F1020020E8020020E4020020E5020020B9
:105DC00048050020F0020020E0020020E20200204E
:105DD0008C100020534A02201489587221B20029E5
:105DE00001DB0620587253891AB2002A04DB4E4C9C
:105DF000617A41F0080060724A4B9A8914B2002C13
:105E000004DD4949487A40F001034B72464C642056
:105E1000DB2304222621A0727920E37222736173AE
:105E2000A073424CFFF786FDA020FBF753FF2378B9
:105E30003F4A0C2B127801D12332D2B210213A48BA
:105E4000FBF7CEFE394908780C2801D1082400E080
:105E5000441C0C7040F6B8344DE0B4F93430012BDA
:105E600047D134490A78D02A11D10A240020FBF7FF
:105E70007DFEC30709D40220FBF7DCFEC020FBF740
:105E800029FF2C4BC020187001E0013CEED12949BC
:105E90000A78C02A2DD10A240020FBF767FE10F0F3
:105EA000010524D1204C10212046FBF739FF207832
:105EB000E12803D0C020FBF70DFF1AE02B462A464D
:105EC000A05C01320F2A18490344F9D15842CC7B17
:105ED00000F0FF039C42EDD1497B174A174C11801B
:105EE00014F8010F0028E5D002F0AEFEF8E7013CFF
:105EF000D2D14FF47A74124B1C60124C2278511C90
:105F0000C8B20828207004D10120FBF793FE0023BB
:105F100023700B4A108870BD002070BD4FF4FA70DA
:105F200070BD00BF8C100020F1020020E3020020B1
:105F3000E4020020F00200202C110020459E000801
:105F4000EC020020E502002008B50B2826D8DFE887
:105F500000F0120812062727252515251D08012007
:105F600008BDFBF7BBFCFBF7C3FE00280CBF4FF0DE
:105F7000FF30012008BDFFF7EBFC0FE00A4BB3F93F
:105F8000320078B941F2FD6159860BE0064BB3F956
:105F90003400411E4A4252EB010008BD002008BDFA
:105FA000072008BD014808BD480500205C9E000888
:105FB00038B528200221FBF7C3FF32203C21FBF734
:105FC000BFFF35201421FBF7BBFF1C200521FBF789
:105FD000B7FF244D1B205521FBF7B2FF0F202521D1
:105FE000FBF7AEFF95F85010032041F00501FBF7D9
:105FF000A7FF06208A21FBF7A3FF95F85020032076
:1060000042F02801FBF79CFF12200E21FBF798FFBE
:106010001020EE21FBF794FF1F200021FBF790FFDB
:106020001E200021FBF78CFF0F4C10210F48FCF7BE
:106030002DF80F48FCF730F82046FBF7ABFFEB6C70
:106040007BB12078627883EA000182EA1320217014
:106050006070A178E07881EA134280EA1363A2704D
:10606000E37038BD48050020060300201C9F00088F
:10607000333302002DE9F743AD4D2B780E2B00F2A0
:106080005381DFE813F00F00440058007500B90099
:10609000B900B900B900B900B900C7000001360164
:1060A000360136012F210320FBF74AFF5220FBF770
:1060B000C9FFA048FBF7E5FF0020FBF7D6FF06204D
:1060C0004A21FBF73DFF83210520FBF739FF5220D2
:1060D000FBF7B8FF0F202521FBF732FF02204021FC
:1060E000FBF72EFF944B56229A70944A01211078A8
:1060F0001970D87050785970187190785871D0789C
:10610000987110795279D8711A72894B197052208E
:10611000FBF798FF0120FBF759FF0F202521FBF724
:106120000FFF85480921FBF7DEFF8148022101703E
:1061300040F6B830F9E015240420FBF717FF10F003
:10614000060F01D1013CF7D15320FBF77BFF022062
:10615000FBF73CFF06204A21FBF7F2FE05208321D6
:10616000FBF7EEFE72480322027047F23050DCE08B
:106170000720FBF7FBFE00F01A031A2B37D10A2089
:10618000FBF7F4FE0F2832D10920FBF7EFFE0F28B2
:106190002DD1694C2046FBF7A1FF2078032826D19A
:1061A000664BE1781A78914221D12079597888425A
:1061B0001DD160799A78904219D1A179D87881421D
:1061C00015D1E1791A79914211D1207A5B799842FF
:1061D0000DD1052254202270FBF734FF0120FBF77C
:1061E000F5FE534B042119704FF4FA609DE0012134
:1061F00029704FF4FA7098E00F202521FBF7A0FEDC
:106200004D480F21FBF76FFF297841F2F8104A1C27
:106210002A708AE04A4C002000F0B0FC474D4D2027
:1062200000900321204605220823FBF774FF6E78B7
:106230002A78217895F80280EF789319E17003EBC2
:1062400008006C79C1190A1BD3B2132093FBF0F933
:1062500000FB193925210F202D79FBF771FE3949F3
:1062600001EBC900FBF70DFF08EB0702531B1819E0
:10627000A419651BEDB245EA002188B2FBF7F5FED3
:106280002B4B0B221A703048AA2490F85000FBF7D1
:10629000DDFE2E4A2849002310780C701A46DCB225
:1062A000844204D32449FF24C9184C7018E02849BB
:1062B00031F8134021B2142491FBF4F111F500716F
:1062C00005D440F2FF34A142A8BF214600E00021DE
:1062D000194CE418617009125C0001FA04F10A43D8
:1062E00001330C2BDBD11448110A4273120C817359
:1062F000C2730F4C12482378C11811F80B0CFBF72E
:10630000A1FE0120FBF762FE0B48FBF701FF22789C
:106310000E2A04D10B20207043F24C6005E0531C80
:10632000237040F6DE5000E00020BDE8FE8300BF91
:10633000050300202C9F00080D0300200603002009
:1063400001030020849E0008480500200C03002063
:106350008C10002010B50B2818D8DFE800F00619C3
:1063600023173934171717173619FBF7B7FAFBF746
:1063700041FEFFF71DFE174A174B08210A20117036
:1063800018704FF416601549FBF780FA002010BD15
:10639000FBF7A4FAFBF72EFE00280CBF4FF0FF30EE
:1063A000012010BDFBF79AFAFBF724FEFFF700FE71
:1063B0000948084B0024082204704FF0FF301A707F
:1063C00000F0DCFBDDE7062010BD4FF0FF3010BD14
:1063D0000C2010BD0C030020050300207560000890
:1063E000F8B52C4C236813F020063ED0204602F06E
:1063F000D6FD294DC4B229482A68018893B25D1A96
:10640000AAB2B2F5FA7F0CD92549012225480A70B3
:10641000254A002505701078411CC8B21070234A27
:106420001570204822490578302D4C5501D86C1C38
:1064300004701B4C027821784D1CAA4212DD1B48C7
:1064400002780F2A0ED81A4E775C755D023147EA42
:10645000052607256E43174DB6B225F812600132A6
:10646000217002700D480380F8BD2068030610D526
:10647000114D124A29782046515C02F08CFD2B7890
:10648000581CC1B20429297003D9204602F0AEFD80
:106490002E70F8BD00440040240400402803002072
:1064A0001A00002026030020980000202503002069
:1064B000D50400208C10002024030020D0040020EC
:1064C00010B5254B042225481A70017801F002020C
:1064D000D0B208B10621197021481F4A0178214B1A
:1064E00051B9107840F020001070FF2218705A70D7
:1064F0009970D970197126E00478022C03D11078B4
:1065000040F040011170127817481A70174902784C
:10651000FF245C7051F82240C4F3034040EA0214A7
:10652000E0B2987051F8220051F8224040F34E003A
:10653000C4F3000444EA4000C0B2D87051F82220ED
:1065400042F307211971084B1978481CC2B20E2A70
:1065500088BF00221A7010BD20030020D50400203F
:1065600000000020D00400201D03002008050020AA
:1065700010B5124B43F2B0621C7845F2082304F0C8
:106580000200C1B200290CBF14461C460C4802216F
:1065900002F031FE0B48002103680948E21802F0BE
:1065A00040FF0948802103F010F830B1FFF788FF61
:1065B0000648BDE8104002F014BD10BDD50400200F
:1065C0000004004034040040000C0140004400403E
:1065D00010B5441E14F8011F19B1024802F0EBFC7B
:1065E000F8E710BD0044004010B53B484FF40031BF
:1065F00002F0BAFB39484FF4964102F08DFC37485F
:10660000002102F0ACFC3548082102F099FC334827
:10661000002102F09EFC31480C2102F0A6FC002172
:106620002E4802F0A8FC2D4802F0ABFC2C480021BB
:1066300001220C2302F038FC65242848202102F0B6
:10664000DAFC40B91420013CFAF7B8FE14F0FF045C
:10665000F3D1002010BD214802F0A1FC7628F8D12A
:106660000321022204231E4802F01EFC0C20FAF72C
:10667000A5FE1C48FFF7ACFF18480D2102F09BFC5B
:1066800016480A2102F097FC1448402102F0B3FC9E
:106690000028F9D0114802F097FC622805D0722832
:1066A00005D06128F6D1012202E0002200E002229A
:1066B0000D4B4FF4E13109481A7002F02DFC0748E8
:1066C00002F08AFC2620102102F0ECFF262002F0C6
:1066D000CFFF012010BD00BF1C100240004400404D
:1066E00000080140489F00080000002008B50B2862
:1066F00009D8DFE800F0060A0608201A08081C0876
:106700001E0A00F023F8002008BD1D2002F0BEFF85
:106710000A4802F0F5FC0A4802F038FC094800215A
:1067200001220C2302F0C0FB03E0102008BD064844
:1067300008BD012008BD072008BD00BF00040040BF
:106740000044004000080140349F000808B50023C1
:106750001E4A52F823106FF3000142F8231052F83A
:1067600023006FF34F0042F8230052F823106FF319
:10677000134142F8231001330F2BE9D1FFF734FF07
:10678000F8B10221124802F0EFFA1248FAF7F0FECF
:1067900010211D2002F086FF1D2002F069FF01215B
:1067A0000C4802F04EFE0C4A0021106800F51C5205
:1067B0001032084802F035FE0648BDE8084002F0F5
:1067C0003DBD0120BDE80840FFF790BF080500204F
:1067D0001C100240000400402404004010B52D4C61
:1067E0004FF400612C4802F0BFFA204602F088FC0A
:1067F0002321204602F027FD204602F01AFD204604
:106800004FF6FF7102F02EFD2046002102F01EFD22
:106810002046002102F0F4FC0021204602F0FAFCA0
:10682000204602F001FD4FF40073002101221B48B5
:1068300002F03AFB20460121022202F058FE2046D7
:106840000121002202F003FE012120460A4602F047
:106850007FFE00222046012102F021FE2046012178
:1068600002F085FE2046042102F0C5FC20460421EA
:1068700002F0B2FC1B20202102F014FF1B2002F0CA
:10688000F7FE2046012102F0DCFD2046BDE8104065
:1068900002F0D4BC002C0140181002400008014056
:1068A00008B52548042102F0A0FC002842D0234B63
:1068B00023491A680B8892B29A4201D3D31A04E092
:1068C0002048006810180130C31A9BB20A8041F2B8
:1068D000F81293420AD91C481C4A0178002313700D
:1068E0004A1CD1B201701A48037008BDB3F5AF6FEE
:1068F00020D316490878E8B9154A1078072817D820
:1069000040F6B8718B4205D8B3F5F76F38BF4FF436
:10691000F76300E00B460A225343A3F5EA413039FE
:106920000C4A8BB20A4922F810300130087008BDB9
:1069300001230B7008BD00BF002C0140382C014022
:106940002C0300202C2C0140980000201B0000206C
:106950002A0300208C10002008B50B2809D8DFE896
:1069600000F0060A06081C1C080808081914FFF79E
:1069700035FF002008BD01210948002202F0B7FDC3
:106980000748012102F0FBFD02E0054802F0B8FBD8
:10699000012008BD4FF0FF3008BD082008BD00BF32
:1069A000002C014010B5134CFAF798FF94F83B30D7
:1069B0009B091ED1FAF738FF94F83A200E48B4F933
